:020000041000EA
:1000000000B5324B212058609868022188439860DF
:10001000D860186158612E4B002199600221596106
:100020000121F02299502B49196001219960352056
:1000300000F044F80222904214D00621196600F024
:1000400034F8196E01211966002018661A6600F04E
:100050002CF8196E196E196E052000F02FF8012189
:100060000842F9D1002199601B49196000215960AB
:100070001A491B48016001219960EB211966A021F2
:10008000196600F012F800219960164914480160C1
:100090000121996001BC002800D000471248134993
:1000A000086003C880F30888084703B5996A0420EC
:1000B0000142FBD001200142F8D103BD02B5186610
:1000C0001866FFF7F2FF186E186E02BD00000240BE
:1000D000000000180000070000035F00212200005C
:1000E000F4000018222000A00001001008ED00E03C
:1000F00000000000000000000000000074B24E7A12
:1001000000200420F7010010CB010010CD010010E9
:10011000C9010010C9010010C9010010C901001077
:10012000C9010010C9010010C9010010CF01001061
:10013000C9010010C9010010D1010010D301001045
:10014000C1010010C1010010C1010010C101001067
:10015000C1010010C1010010C1010010C101001057
:10016000C1010010C1010010C1010010C101001047
:10017000C1010010C1010010C1010010C101001037
:10018000C1010010C1010010C1010010C101001027
:10019000C1010010C1010010C1010010C101001017
:1001A000C1010010C1010010C1010010C101001007
:1001B000C1010010C1010010C1010010C1010010F7
:1001C000EFF30580103800BE00BE00BE00BE00BECA
:1001D00000BE00BEF2EB8871543D0010703D00106F
:1001E0003802001090A31AE71E481F49086006C88D
:1001F00081F3088810471D480068002801D019487D
:10020000F3E70DA40ECC002902D000F012F8F9E7B4
:100210001749184A002000E001C19142FCD116495B
:100220008847164988471649884700BEFDE701C937
:1002300001C29A42FBD37047703D0010C0000020FD
:1002400098020020483F0010000004200000042015
:10025000483F00100010042000100420000000009F
:10026000704700000000000008ED00E0000000D032
:1002700098020020140800208D3100102103001086
:100280004D310010F8B5C0460448054B10B5834207
:1002900003D0044B002B00D0984710BD98020020DB
:1002A000980200200000000006480749091A8B1038
:1002B000C90FC91810B5491003D0044B002B00D04A
:1002C000984710BD9802002098020020000000000E
:1002D00010B5074C2378002B09D1FFF7D5FF054B4C
:1002E000002B02D0044800E000BF0123237010BDA2
:1002F0001804002000000000C4350010054B10B5A4
:10030000002B03D00449054800E000BFFFF7CCFFF5
:1003100010BDC046000000001C040020C4350010C1
:10032000002702480137391CFBE70000400200208B
:100330000FB400B583B0084803F030F8049B002BDD
:1003400007D005A90191180003F038F8034803F01D
:1003500025F8012002F0F8FEC8350010D83500104D
:10036000EFF3108072B6034B1B68002BFBD0BFF37A
:100370005F8F70472C0100D0BFF35F8F024B0022CC
:100380001A6080F3108870472C0100D0F8B5060081
:100390000C001500FFF7E4FFE308F718F15C0722F3
:1003A0002240012393400B4205D1DBB20B433B704B
:1003B000FFF7E2FFF8BD21002800FFF7B9FF0000BA
:1003C000054A1078431CDBB21370172B02D91300B7
:1003D00010221A707047C04650020020002307E028
:1003E000054A9A189200BFF35F8F00211160013314
:1003F0001F2BF5D97047C04640000034074B9B685F
:10040000103080001950BFF35F8FBFF35F8F044B34
:100410000021196082F310887047C04600ED00E0AB
:10042000240100D00048704700E400E010B5FFF759
:10043000F9FF002302E0034A04C00133072BFAD975
:1004400010BDC04680808080002A05D0044BC022A9
:100450005200995019607047014A8023D150FAE741
:1004600000E100E010B50A001F230340012199407C
:100470004009FFF7E9FF10BD024B9B681030800078
:10048000C058704700ED00E070B504000D00EFF3B8
:10049000108672B60C4B1B68002BFBD0BFF35F8F2E
:1004A0002000FFF7E9FF094B984201D0A84205D18F
:1004B000320029002000FFF7A1FF70BD044B054A60
:1004C0000548ED2102F046FE240100D0C1010010D4
:1004D0002C360010583A0010F4350010024B9C46A0
:1004E00061448900016070474000003410B5040089
:1004F000FFF766FF01002000FFF7F0FFFF232371E5
:10050000BFF35F8F10BD10B50400FFF759FF010066
:100510002000FFF7E3FFFF23237100236371BFF384
:100520005F8F10BD10B50D4C09E00D4B0D4A0E4804
:100530001A2102F00FFE2000FFF7D8FF08340B4B02
:100540009C4209D22368002BF5D0012BEDD120006D
:10055000FFF7D9FF0834F2E710BDC0469002002033
:1005600064360010983A001084360010980200207B
:1005700030B5846A151B0B1D9B001B581B1B9D422D
:1005800004D3046A01238B40234202D10431890041
:100590000A5030BD00040843704700000A4B196838
:1005A000EFF3108372B60A68002AFCD0BFF35F8FA6
:1005B000054A1268BFF35F8F0021116083F3108832
:1005C00040BF00200021704710080020F0B5DE4633
:1005D00057464E464546E0B583B0EFF30583032208
:1005E0001A4011000192AC4B9200D35898461B78E8
:1005F0008B4207D10123019A93400093A74B009AA5
:100600001A6019E1A64BA74AA748922102F0A2FD61
:1006100043465A694B465B004B44DB0093469B4480
:100620005B469E68DF68A14800F038FB801BB9413B
:10063000002900DA0AE1002F60DB5B461C699C4B55
:100640009C4245D043460820185E5B46598889B2D3
:10065000FFF7A0FF5B465969A04704000D00230087
:100660002B434BD0002D3DDA30003900001BA9414F
:100670005B469860D96000241C5F002C00DAE5E03E
:1006800043465A69924663001B19DB0053449A683B
:10069000DB6805000E00AD1A9E41002E00DAD5E0A1
:1006A00043461C8147460837BC46634600255D5FCC
:1006B000002D1DDB6C006419E4005444A268E3685B
:1006C00006000F00B61A9F41002F11DBA446ECE78D
:1006D0005B465C6923692000984700280ED0656856
:1006E0002468BCE7714800F0D9FA00196941BFE7F6
:1006F0005B461D804B4662461380A7E05B460022A6
:100700009B5E424613811269EFF3108372B6116843
:100710000029FCD0BFF35F8F42460221525E59464A
:100720000A804246494651801269BFF35F8F00211B
:10073000116083F3108889E043461969EFF3108351
:1007400072B60A68002AFCD0BFF35F8F42469288D7
:1007500012B291460122524241468A800A69BFF391
:100760005F8F0021116083F310881AE09B465B467F
:1007700000229A5E002A0BDB53009B18DB005344D7
:100780009868D96826002F00361A8F41002FEDDABD
:100790004B4659460B80634600215B5E9946634693
:1007A0001A804B46002B57DB43465A6992464B460C
:1007B0005B004B44DB009C46D44463469C68DD6888
:1007C00046460836B346D2E7002342469371414677
:1007D000083143460820185E11E001225242D31727
:1007E000A260E360434608229B5E834206D00D80F0
:1007F000434608229B5E2380434618812800431C01
:100800002ED043465A6943001B18DB00D418D55E2E
:1008100063881BB2002BE0DB2100EFE722002B00F6
:1008200001992248FFF7A4FE204800F037FA241A65
:100830008D41002D28DC25D01C4B009A5A6343467D
:1008400008229B5E9946002B00DBE1E643469B882D
:100850001BB2002B00DB6FE743469B79002BB3D123
:10086000434608229A5E002A0EDB4346596953002C
:100870009B18DB00CB189C68DD68631CCED16B1C19
:10088000D2D0CBE7002CD7D040BF03B0F0BCBB46E2
:10089000B246A946A046F0BDFC0500203C700540CC
:1008A00008370010C43A00103437001000400540EB
:1008B000CD05001070B504000D0011000126AE40FA
:1008C00006622800FFF7E0FD01212800FFF7CAFDBE
:1008D000024B9C466444266070BDC0463820000030
:1008E000F8B5CE46474680B50600894690461F00BB
:1008F000C160FFF765FD154B9C4660448000306188
:1009000043463370BBB27381D022120612787270E4
:10091000012252423281B2809B187380002406E08B
:10092000621E736965002D19ED005A530134BC42F3
:10093000F6D3074B42469200D650064A41464846F7
:10094000FFF7B8FFC0BCB946B046F8BD4000003460
:10095000FC050020CD05001010B5064B1B69002BCF
:1009600001D0044810BD044B044A0548652102F03B
:10097000F1FBC0465402002064370010AC3A00106E
:1009800034370010F8B504000569EFF3108072B633
:1009900029680029FCD0BFF35F8F0221665E65697C
:1009A00071008919C9006D18002E02DB0027E95F6C
:1009B00061802169BFF35F8F00270F6080F310888B
:1009C000002E2CDB0699296107996961AA60EB600A
:1009D0006B8801335B04590C002B00D10121698025
:1009E0003000FFF7D7FD2169EFF3108372B60A6874
:1009F000002AFCD0BFF35F8FA2882A80A6802269DC
:100A0000BFF35F8F0021116083F31088E3682178C2
:100A100001228A4003498C4663441A60F8BD0120D4
:100A20004042FBE73C20000070B582B00600140095
:100A30001D0008AB1B78002B07D100F037F922000E
:100A40002B00121A8B41002B0ADB079B0193069B9C
:100A5000009322002B003000FFF794FF02B070BD1E
:100A60000020FBE7F0B5C64600B584B00500884617
:100A700016001F000AAB1C78FFF76EFF0294019767
:100A800000962A004346FFF7CFFF04B080BCB8466B
:100A9000F0BD000030B5030008145A8990422EDAE8
:100AA0005C6942001218D200A2181D69EFF310848D
:100AB00072B628680028FCD0BFF35F8F508880B2E0
:100AC0000904090C884212D000201A69BFF35F8F15
:100AD0000021116084F31088002811D0DA681B7897
:100AE00001319940074B9C466244116008E0064979
:100AF000014389B2518001229A710120E5E700206B
:100B000030BDC0463C2000000080FFFF10B504004F
:100B1000FFF722FF2100FFF7BDFF10BDF0B5CE4665
:100B2000474680B583B005000C00EFF30583002B2A
:100B300015D0434B5B6A8B4209D3414A926A824289
:100B40000BD28B4201D0012002E0002000E0002007
:100B500003B0C0BCB946B046F0BD0120F8E7FFF7CE
:100B6000FBFEC3689946037898462E002700484646
:100B700000F094F802000B00B61A9F41434604337C
:100B80009B004A469B581B1A0022BA420FDC0CD02D
:100B900020BF2B4B5B6A9C4220D8294A926AAA420A
:100BA0001ED29C4218D00120D2E7B342F0D9254A88
:100BB0000023009328002100FFF754FF002811DDD7
:100BC0001F4B5B6A9C4221D81D4A926AAA422FD2CF
:100BD0009C4219D001231AE00020B9E70020B7E7B2
:100BE0000120B5E7164B5B6A9C4209D8144A926A09
:100BF000AA4207D29C4201D00120A9E70020A7E722
:100C00000020A5E70120A3E7002300E00023002B3C
:100C100000D120BFFFF77AFF094B5B6A9C420BD8DB
:100C2000074A926AAA4209D29C4203D001208FE768
:100C30000123ECE700208BE7002089E7012087E70C
:100C4000004005409D0500100048704700400540E9
:100C500010B50B4B1B69002B04D00A480A21FFF783
:100C60003DFC10BDFFF7F0FF0400032100F00CF87D
:100C70000348102303222100FFF732FEEDE7C046B0
:100C8000540200201008002010B5024A0248FFF765
:100C90007DFB10BD88370010C80500200200436AA4
:100CA000906A1900536A9942FAD1704710B5024808
:100CB000FFF7F4FF10BDC04600400540F8B5D6462A
:100CC000474680B506000D001700984644002418DA
:100CD000A400294B9C4664446368089A934200D25E
:100CE0006260331FDBB29A46012B2ED9802212019B
:100CF000C0239B01E3181A60204BB200D158002991
:100D000007D0586900F062FA013043001B18033B1A
:100D1000FDD27F0123685F40E0233B4080225201E7
:100D2000A21813605346012B1AD980239B01E318A4
:100D3000802212011A60089B6360104BB600424685
:100D4000F250C0BCBA46B046F8BD012DCED1032248
:100D5000C0239B01E3181A60A368DB07FCD5D8E722
:100D60002168694003230B401360A3680122AA4055
:100D70001A42FAD0D9E7C04600800040CC050020D6
:100D8000F0B583B005000E0017001800089900F0B8
:100D90001DFA0300089A140200943A00310028005A
:100DA000FFF78CFF03B0F0BD10B582B08024640063
:100DB0000094FFF783FF02B010BD0000014B8000DC
:100DC000C0587047CC050020F0B5C64600B50400F9
:100DD0000E0017001D00374800F0F8F98046364B2A
:100DE000FA18364B9A4239D80100380000F0EEF973
:100DF0000200103A98235B009A4235D86B1E062BEE
:100E000038D8069B013B062B34D83F09474537D3DA
:100E10002D04069B1B031D432368002B36DB284B48
:100E20009C4244D00C2201239340264A1360264A58
:100E30001360264A1268190091430A1EF9D12660F0
:100E4000A060234BE31821321A602268002AFCDAE2
:100E5000E56008221A6080BCB846F0BD1D4B1E4AF2
:100E60001E48112102F076F91D4B1B4A1B4819211F
:100E700002F070F91B4B184A18481C2102F06AF95D
:100E8000194B154A1548232102F064F922683F23C3
:100E90001340B342C3D1A3681B051B0D8342BED1CF
:100EA000E368EE22D2021340AB42B8D1D3E70D2261
:100EB000B9E7C046001BB70080E84BD380F8A932E1
:100EC00000C0024000E0004000F0004008C00040C8
:100ED00004300000AC370010DC3A0010FC37001082
:100EE00034380010503800109C38001080239B00CC
:100EF0000B43014AD36270470080054010B50100E2
:100F000018231B8814221088984710BD10B50100C3
:100F100018231B8816221088984710BDF0B5C646C6
:100F200000B507000E0000250123984600E00135BA
:100F3000B5420AD2AC003C192068FFF7DFFF206001
:100F40000028F4D100239846F1E7404680BCB8461B
:100F5000F0BD0000074BAA2212011A608D22520038
:100F6000DA60054B054A1A60024B5B68002BFBDA1E
:100F70007047C046004002400060024000B0FA00E6
:100F800010B5040001E008CC9847024B9C42FAD30C
:100F900010BDC046BC3500107047000010B50248B7
:100FA000FFF7EEFF10BDC04680350010054B064A26
:100FB0001A60064B064A1A60064B1A68044B9343A4
:100FC000FAD1704700E00040BFCDFBFE00F00040CA
:100FD000FE7F3C0008C00040044BDB6C002B03D1BB
:100FE000034B8022D2021A607047C04600001150A5
:100FF0004C201150044B054A1A60054B1B68DB431B
:10100000DB01FAD17047C04600F00040FFFFFF014E
:1010100008C00040034B40229A675A671A67DA6695
:101020007047C04600F0014010B5FFF7D7F910BD7A
:1010300010B50C4A0C4BD21A92101400302A00D969
:10104000302292000948084900F09CFF04E0084A59
:10105000064BA100CA5001342F2CF8D9034B054A86
:10106000936010BDC00100100001001000000020BE
:10107000C101001000ED00E070B50420FFF79EFEF6
:10108000064900F0A3F805000024002C00DD70BD27
:10109000E0B22900FFF72AFF0134F6E740420F00D3
:1010A00030B583B0274B00229A67FFF753FF264BDA
:1010B00001221A60234B5B6C012BFBD1234B0322D3
:1010C0001A60204B9B6B012BFBD10133009304333F
:1010D0001F4A01211F48FFF777FE052300931E4A90
:1010E00001211E48FFF770FE1D4B00220221042043
:1010F000FFF75AFE1B4D2B00002201210520FFF7B0
:1011000053FE194C2300002200210720FFF74CFE5C
:101110002300002200210820FFF746FE8023DB0089
:1011200000932300002200210920FFF729FE2B0055
:10113000002200210620FFF737FEFFF79DFF03B0D6
:1011400030BDC046008000403CB0004030B00040A0
:10115000002F685900800240008C864700C0024082
:10116000001BB70040597307006CDC0201480421E2
:10117000014B1847700200201D0F0010124A936F98
:101180009B0815D29066D166002905D0FFE7FFE7DE
:10119000FFE7516F106F704704B580210906C21731
:1011A0005140002800D0C84302F0DAF9002104BD04
:1011B000F0B5146E556E576F166FFFF7E3FF1466A8
:1011C000556657671667F0BD000000D0114A936F4F
:1011D0009B0813D210665166002905D0FFE7FFE790
:1011E000FFE7516F106F704704B5002801D0002051
:1011F000C04302F0B5F9002104BDC046F0B5146E3D
:10120000556E576F166FFFF7E5FF14665566576703
:101210001667F0BD000000D094464A4A926F9208CB
:10122000624601D228E0C046F0B5464E346E756E77
:10123000776F366F00F020F89446424A1466556680
:10124000576716676246F0BD94463E4A926F920811
:10125000624601D254E0C046F0B53A4E346E756E27
:10126000776F366F00F04CF89446364A1466556630
:10127000576716676246F0BD002B24DB11D00029AA
:101280003EDA00B5C943404200D1013100F038F8E0
:10129000C943404200D10131DB43524200D1013306
:1012A00000BD002AEBD1002801D1002905D0002083
:1012B000C90FC90701D1C043410800B502F048F980
:1012C0000022002300BD00B500290ADBDB435242A7
:1012D00000D1013300F014F8C943404200D101317C
:1012E00000BDC943404200D10131DB43524200D12D
:1012F000013300F005F8DB43524200D1013300BD59
:10130000002923D1002B18D1002A0CD0BC460D4F48
:1013100038667A6600210023FFE7FFE7FFE77A6F70
:10132000386F67467047002801D00748010000B5B4
:1013300002F00EF90022002300BD02000B00002085
:1013400000217047000000D0FFFFFFFF002B00D0FE
:10135000BFE0130C28D1002AE7D080B4114F3966C2
:101360007A66FFE7FFE730B4040C7B6F396F1B042C
:1013700023433B667A66FFE7FFE7FFE7C04684B298
:101380007B6F3D6F1B0423433B667A66FFE7FFE7F5
:10139000C04600232C042D0C7A6F386F0019694168
:1013A000B0BC7047000000D0F0B594460025140E84
:1013B00001D112020835140F01D112010435940F26
:1013C00001D192000235D40F01D152000135D40B66
:1013D0000134254F7C66254C3C660E0C93B2FFE72A
:1013E000FFE7FFE73C6F6643360C7703BE46734367
:1013F000DF0B5B04C01AB941130C7343DB18C91A25
:10140000CE086643360CB64493B273431F0F1B01DC
:10141000C01AB941130C73431F0B1B05C01AB94105
:10142000860D8F023E436643360C092D24DB520A9B
:101430007243801A7703460A6643360C16235B1BF9
:10144000DE40DF40BF1964466643821B70460435A8
:1014500006330100D940A840C01900D30131A2428F
:1014600006D20023F0BD0000000000D0FFFFFFFF08
:10147000121B0130F3D3F1E709277F1BFE406446BE
:10148000A2B27243801A00D20139220C7243130CAB
:101490001204821A99410B0070460435133701007B
:1014A000F940A840801900D30131002B02D1A2429B
:1014B0000AD2F0BD013000D30131121BFAD2013B38
:1014C000F8D1A24200D2F0BD013000D30131121B8D
:1014D000F7E7F0B51C0C00D080E00CB400251C0A26
:1014E00004D11B02160E3343120208351C0B04D123
:1014F0001B01160F3343120104359C0B04D19B00D2
:10150000960F334392000235DC0B02D192185B41F7
:1015100001351C00971864410134464F7C66464CE7
:101520003C660E0CFFE7FFE7FFE7C0463C6F6643F3
:10153000360C7703BE4697B27743C01B00D2013901
:10154000C01B00D201399FB27743C91BC91B170CBE
:1015500077437E04FF0B801BB941CE086643360CEF
:101560000C2D33DBB644120B1F053A431B0B97B20D
:101570007743C01B00D201399FB27743C91B170CB8
:1015800077433E043F0C801BB941860D8F023E43DA
:10159000664329277F1BFE400C3D7746AF40BF19AD
:1015A00030BCA2B2ABB272437343801A9941220C91
:1015B0007243130C1204801A994102000B00013788
:1015C000001BA941F9D2781E0021F0BD0C277F1B1A
:1015D000FE4077467F0BAF40FF19E0E700245D1C1B
:1015E00007D0144F7D663966FFE7FFE7FFE7FFE7A7
:1015F0003C6F95B29EB265436643401BB141150CEA
:101600001E0C6543664336042F0C3E432D04401BDD
:10161000B141994204D202000B0020000021F0BD2C
:1016200001D19042F7D3801A994101349942F2D303
:10163000F6E70000000000D0FFFFFFFF48404140F8
:10164000484018B41B4B5B68FC46019308BD04DF9F
:101650001719001018B4174B1B68FC46019308BDFE
:1016600000DF211900109446134A926F920809D2A4
:10167000624618B40F4BDB68FC46019308BD0CDFD3
:10168000D91B00100C4AF0B5146E556E576F166FCB
:101690006246FFF7EEFF084A1466556657671667FD
:1016A000F0BD18B4034B9B68FC46019308BD08DFEE
:1016B0007D1A00100C060020000000D0FFB550403D
:1016C0004240504059404B40594000E0FFB5154F53
:1016D0004C00640D03D0BC4204D10C0314D800208C
:1016E000090D09055C00640D03D0BC4204D11C0344
:1016F0000AD800221B0D1B0501264B4009D44B4084
:1017000003D58B4200D18242FFBD9942FCD1904269
:10171000FFBD0B43DB1803431343F5D0C9434918FE
:10172000FFBD0000FF07000000B5FFF7CFFF8041BD
:1017300000BDC04600B5FFF7C9FF01D9002000BDBC
:10174000012000BD00B5FFF7B9FF01D9002000BDA1
:10175000012000BD00B5FFF7B1FF804100BD0120B1
:1017600040054A00121804D85A00121801D8002067
:1017700070470120704700000021002805D1704704
:10178000C1174840401AFAD0C90713B5064B1B6869
:1017900098470CBC441CA2401005120B0349091BBE
:1017A00009051943114310BD0C0700201F04000058
:1017B00010B54C00620D8023D218DB00D21A5B05F5
:1017C0007E2A10DD9E3A13DACC1709034908194323
:1017D0005242D140640001341532202A05DAD0404B
:1017E0000843604310BD002010BD0846604310BD93
:1017F000C80FC018013810BD18B4044B5B6AFC4612
:10180000019308BD24DF891D001000000C06002094
:1018100070B513231C78012C12D0012C12DC214B43
:10182000214A93642148FFF769FB214B186070BD82
:101830001C491D4A9800815001331F2BF8D9ECE751
:101840000023FAE71B48FFF761FB05001A48FFF782
:101850005DFB023803789B007F2B09DD1248802254
:10186000290000F08FFB022C08D0022CDADCD6E72E
:10187000124B134A1348332101F06CFC124B1A88A7
:10188000B5231B029A4209D1104B1A88104B9A4279
:1018900004D1104B1A88104B9A42E6D00020FEF774
:1018A00047FDC046DD1800100C0600204C33000038
:1018B0000C0700205344000053460000B8380010C5
:1018C000E83A0010FC38001054380000D838000006
:1018D000494600009C3800005946000007B56046A4
:1018E000002800D100BE01880A0A0230DF2AFAD19E
:1018F000C9B2820804D3028840880004104300E083
:101900000068024A5050039007BD00000C060020FA
:101910000FB403BC0CBCF0B50124E407634000E045
:10192000F0B50C0DCF0F661E3605891B640503D379
:10193000C943404200D30131640D03D0661CF60A4E
:1019400007D0E41B00207F00791C89078912803CA6
:1019500024031D0DDF0F6E1E36059B1B6D0503D383
:10196000DB43524200D301336D0D03D06E1CF60AE7
:1019700007D0ED1B00227F007B1C9B079B12803D44
:101980002D032F1B661B58D4A446202E46DA203781
:101990001400BC401D00BD40F24033412A43801872
:1019A0005941CB0F05D0C943C04300226442504186
:1019B000514162464D0D28D10D0D07D100281FD091
:1019C000241940414941013A0D0DF9D0640006D374
:1019D000013000D30131002C01D140084000013A10
:1019E0000BD4941CE40A04D112051144DB071944FA
:1019F000F0BDD907204B194300E0D9070020F0BD06
:101A00000029DDD1002CDBD1F0BD0132C607400832
:101A1000CD0728434908002EE1D0D9E73C2E29DA2A
:101A2000203E40371400BC4000D00124F240144353
:101A30001A00BB401C43D317ACE7AC46202F08DA92
:101A400020360400B4400D00B540F8403941284329
:101A5000A5E73C2F0CDA203F40360400B44000D00C
:101A60000124F84004430800B1400C43C117EAE7E1
:101A700010001900002494E70000F07FF0B50C0D71
:101A8000661E3605891BE60A6405640D02D0651CD6
:101A9000ED0A04D0002001210905803C2403A4465E
:101AA0001C0D671E3F05DB1BE70A6405640D02D0B1
:101AB000651CED0A04D0002201231B05803C240391
:101AC0007740644497B484B296B27443070C7E4363
:101AD000150C6F4380B26843361802D3012000040E
:101AE0003F183004350C00197D41844688B29AB203
:101AF00050430C0C62431F0C7C438EB27E43921900
:101B000002D301263604A4191604170C36186741AF
:101B100001BC81B29AB25143040C62431B0C5C437A
:101B200080B25843121802D3012000042418100474
:101B3000130C401863412D185E410020474106BC3C
:101B400088B293B258430C0C6343120C544389B2CD
:101B500051435B1802D301210904641819041A0CBB
:101B6000091862416D1856410020474118BCF9021E
:101B7000720D1143F0026A0D1043ED020A0D03D1FC
:101B80006D1940414941013B124E9B1B7600B34207
:101B90000ED26D0007D301300026714166463543F1
:101BA00001D1400840001B05C918E4072144F0BDDD
:101BB0000BDA013306D1013004D101314F0D01D0D0
:101BC0004908F2E7E1070020F0BD013631050020A9
:101BD000EBE70000FF030000F0B51C0D671E3F059A
:101BE000DB1BE70A6405640D02D0661CF60A04D00C
:101BF000002201231B05803C2403D0252D0600264E
:101C0000F6432E661E096E66CE0FF619B4464900DD
:101C10004F0D02D07E1CF60A03D000200021403F69
:101C20003F033E1BB600B444013F7F05C91B490872
:101C30002E6F013676089C02950D25437543ED13F2
:101C40007543AD1301356D10F603761B0CB4CC0251
:101C5000450D2C43A2B2B3B25A43270C7B43350C3B
:101C60006F43A4B26C431B1902D3012424043F190F
:101C70001C041D0CA4187D4124196D41009A91B2D9
:101C8000ACB26143170C7C432B0C5F4392B25A43B6
:101C9000A41802D301221204BF182204230C5218E4
:101CA0007B41019C6C431B19520ED9010A4344012C
:101CB000A01A81B2B2B2514303145A43360C734393
:101CC00087B27743D617D21900277E4136049B1975
:101CD0001704160C7F185E417316ED18F3010026E9
:101CE00080337541A90F06D16400690AE8055B0AD3
:101CF000184309D22FE00422944480337541A90A85
:101D0000A8059B0A184326D3404149412404009A60
:101D1000019B0D005543641B4343E41A95B286B200
:101D20007543170C7E43030C5F4392B25A43B618B7
:101D300002D301221204BF183204330C52197B4122
:101D400052429C41002C02D40022013051414008F3
:101D5000CA071043490802B06246D7079210084BE1
:101D6000D218084B9A4203D212058918C919F0BD3E
:101D70000020002A01DC3900F0BD01331905F5E728
:101D8000FD030000FE070000002200B5203200F035
:101D900004F8080000BD000000220B150AD410B59D
:101DA000944600F031F81414013400DA0021CB1706
:101DB000144C20470020002170476244343A0CD470
:101DC0000C2A07DA04009140904052422032D4405D
:101DD000214310BDD843D94310BD203207D40C464F
:101DE0009440524220321141D040204310BD08009F
:101DF000C917203203D452422032104110BD1800BE
:101E0000190010BDBB1D00100A0DCC0F531E1B0581
:101E1000C91A520503D3C943404200D30131520DC0
:101E200003D0531CDB0A07D0121B00206400611C86
:101E300089078912803A1203014BD21A70470000B9
:101E4000FF03000070B513231E782A48FFF75EF8E1
:101E50000500012E11D0012E09DDAB1E1B789B0061
:101E60007F2B40DD24488022290000F08BF8234896
:101E7000FFF744F8224B186070BD1F485422290018
:101E800000F080F81F4B1A881F4B9A421CD1A723E1
:101E90009B011A881D4B9A4216D11D4B1A881D4B67
:101EA0009A4211D11C4B1A8894239B019A420BD160
:101EB0001A4B1A881A4B9A4206D11A4B1A681A4BB7
:101EC0009A4201D1152307E01848FEF731FA184C61
:101ED000094A99008C5001331F2BF8D9144B064A3C
:101EE0001362D361B7E7134B134A1448422101F040
:101EF00031F9C04653460000100700204C33000063
:101F00000C070020EE290000C40F0000C20D0000E5
:101F1000962B0000C0B50000182B0000CC2A000052
:101F200010B50000FC2C000051ED8764243A00102D
:101F3000411F001044390010FC3A0010783900109D
:101F400007B56046002800D100BE01880A0A0230A9
:101F5000DF2AFAD1C9B2820804D30288408800047B
:101F6000104300E00068024A5050039007BD000093
:101F70001007002001480421014B1847800200206F
:101F80001D0F0010014B5B68184700008002002005
:101F9000704710B5002802D00B684968984710BDFB
:101FA0000100002007E083001B185B00501C086044
:101FB0001078C01830380A681378303BDBB2092B30
:101FC000F1D97047F0B5DE4657464E464546E0B576
:101FD00083B093461F000C9B9A460D9C0E9B99461E
:101FE0000F9B9B0703D0B8460F00060022E001922A
:101FF000A34688464E46B9460700B44207D2551C50
:102000004B4641462020B84701342A00F5E73D0001
:102010004F465C46019B9B46B1464646B846370054
:102020002E0007E0013C551C5346185D434639001D
:10203000B0472A00002CF5D135003E0047460F9BE3
:102040009B0707D4100003B0F0BCBB46B246A946BC
:10205000A046F0BDB0464E46B9462F005D46531B24
:10206000B342EFD2541C4B4641462020B8472200D1
:10207000F5E7F0B5CE46474680B585B0944698461C
:102080000C9D0D9C0EAB1B789946109A119B129ECD
:10209000B7071CD4002B0CD0F7070AD54F46002FEA
:1020A00002D10C37374204D0013B02E030272F55D4
:1020B0000134944201D21F2CF8D9F70707D59C426E
:1020C00005D21F2C03D830272F550134F5E7F7062A
:1020D00012D5770505D4002C03D0944221D09C4220
:1020E0001FD00F9A102A32D00F9A022A37D01F2CF5
:1020F0000AD830222A5501341F2C05D84A46002A16
:1021000033D02D222A550134039602930194009571
:1021100043466246FFF756FF05B0C0BCB946B0461D
:10212000F0BD621E012C10D00F9F102F0BD0140099
:102130000F9A102AD8D1B206D6D51F2CD4D858223F
:102140002A550134D3E7023CCBE71400C9E7B206B5
:10215000EED41F2CECD878222A550134C7E71F2C67
:10216000D2D860322A550134C1E7720703D52B2239
:102170002A550134C8E73207C6D520222A55013432
:10218000C2E7F0B5DE4657464E464546E0B593B049
:1021900081468A46089209931CAB10CB1B789B465C
:1021A0001E9D219B9846002C03D1102342469A4342
:1021B00090468023DB0046461E4042461A4212D01B
:1021C000002C22D000260EE03033D9B2771C0AABA7
:1021D000995529002000FEF7F9FFAC4216D31F2FB6
:1021E00014D83E00040029002000FEF7EFFFCBB218
:1021F000092BE9D94246920605D54121C918C9B231
:102200000A39C9B2E2E76121F8E72700434606939D
:10221000209B05931F9B049303955B4602930197B4
:102220000AAB0093099B089A51464846FFF721FFE5
:1022300013B0F0BCBB46B246A946A046F0BDF0B50F
:10224000DE4657464E464546E0B597B00A900B919C
:102250000C929A46209B9946219F22AA13789B466E
:10226000249B0993259C289B98464A463A4302D1D1
:102270001032934398468022D2004546154043468B
:1022800013420AD04A463A4341D000252E00534615
:102290000D934D46099B9A461BE02E0053460D9325
:1022A0004D46099B9A4614E03033DAB2731C9946C6
:1022B0000EAB9A555246230028003900FEF7C4FFA2
:1022C000BC4226D819D04B461F2B1CD84E460500C1
:1022D0000F005246230028003900FEF7B5FFD3B2A5
:1022E000092BE1D94246920605D54122D218D2B235
:1022F0000A3AD2B2DAE76122F8E7AA45E3D94E46B4
:102300000D9B9A4608E04E460D9B9A4604E0002637
:1023100002E04E460D9B9A4643460693279B059343
:10232000269B0493099B03935B46029301960EAB95
:10233000009353460C9A0B990A98FFF79AFE17B030
:10234000F0BCBB46B246A946A046F0BDF0B5DE469D
:1023500057464E464546E0B591B0804689460C92B8
:102360009A461A9C1B9D22002B0020002900FFF793
:10237000F6F9002800D0ECE001225242D44B2000B4
:102380002900FFF7E7F9002800D0E2E001225242DD
:10239000D04B20002900FFF7C7F9002800D0D8E073
:1023A0000022002320002900FFF7BEF9002800D0FA
:1023B000E4E0069407958023DB001E9A1A400D92F4
:1023C0001E9A1A4201D106231C930698079902000F
:1023D0000B000892099303000A00024300D1D9E0E0
:1023E000080D4005400DBC4EB44660440A03120B74
:1023F0001E00BA4B13431F00FFF7C2F9B84AB94B8E
:10240000FFF74FF9B84AB94BFFF724F90890099143
:102410000022B74B30003900FFF713F9B54AB64B2D
:10242000FFF73FF902000B0008980999FFF712F92E
:10243000FFF7BEF98346FFF7A3F906000F00AF4A86
:10244000AF4BFFF72EF90022AE4BFFF703F9FFF772
:10245000AFF90890AC4AAD4B30003900FFF721F9D5
:1024600006000F000898FFF78BF9A94AA94BFFF760
:1024700018F902000B0030003900FFF7E2F80600FF
:102480000F0002000B00FFF70CF90A900B91089B5C
:10249000A14A9446634400210022089109921B0539
:1024A00009930023089332003B0030003900FFF706
:1024B000D1F80E900F9132003B0000208021C90519
:1024C000FFF7BFF806000F000022944B0A980B9903
:1024D000FFF7C9F80022924BFFF7BCF802000B008F
:1024E0000A980B99FFF7BFF800228E4BFFF7B2F85E
:1024F00002000B000A980B99FFF7B5F802000B00D9
:1025000030003900FFF7A6F802000B000E980F9973
:10251000FFF7A9F80022714BFFF79CF8089A099B76
:10252000FFF7BFF806000F0008960997069A079B69
:10253000FFF710F900282FD001235B429C46E344AB
:102540000022774B30003900FFF78DF80890099191
:1025500022E01E9B04931D9B03931C9B02930094FB
:10256000019553460C9A4946404600F0FFF811B0D9
:10257000F0BCBB46B246A946A046F0BD00210022F1
:1025800006910792069480231B069C46AC44634642
:10259000079310E700239B465B466333C62B20D886
:1025A00004261E9B1B0528D5089A099B1900114378
:1025B0000FD05D4A5D4B06980799FFF7C3F80028D6
:1025C0007AD000225A4B06980799FFF7ADF80028F9
:1025D00072D01C9B5B4506DD5A469B1A013B1C933F
:1025E00003E00526DDE700231C938023DB001E9A11
:1025F0001A431E92002600239B461D9B9E4265D2D5
:102600009F1B02231E9A1A400A921E9A134202D05E
:10261000002E00D000275B46002B07D0089A099BAC
:1026200006980799FFF71FF80690079100220023EC
:1026300020002900FFF778F8002800D07CE03D4B0F
:102640001E9A1340049303971C9B0293069B079CBE
:102650000093019453460C9A4946404600F086F890
:10266000002E00D183E71E9B9B0671D54525441C97
:102670005346020049462800C0475A46D317D2188D
:102680005A4005230593013E0496002303930A3321
:1026900002935B46DB0F01930092534622004946AA
:1026A0004046FFF76EFD0A9B002B00D15FE702005A
:1026B00047460C9E1D9D53E01C9B002B9DD00D9BFF
:1026C000002B9AD01C9B013B1C9396E7002798E7B0
:1026D000FFFFEF7FFFFFEFFF01FCFFFF0000F03F78
:1026E000FB799F501344D33FB3C8608B288AC63F01
:1026F0000000F83F61436F63A787D23F71A3790958
:102700004F930A400000E03F1655B5BBB16B024045
:10271000EF39FAFE422EE63FFF03000000002C4096
:1027200000002440000018402D431CEBE2361A3F05
:1027300080842E41FFF7FFFF069C079D22002900A1
:1027400080200006844661440B000692079376E7DA
:1027500065258CE7541C534649462020B847220083
:10276000931BAB42F6D3100001E7C046F0B5DE463E
:1027700057464E464546E0B595B0069007919346BC
:102780009946209F1E9A1F9B10001900FEF7E7FF35
:10279000002831D101225242BF4B1E981F99FEF7EB
:1027A000C3FF002837D101225242BC4B1E981F990B
:1027B000FEF7D0FF00283DD10022B94B1E981F998B
:1027C000FEF7C8FF002850D10022B64B1E981F9973
:1027D000FEF7AAFF002848D1002200231E981F9967
:1027E000FEF7A2FF002850D100239846229B5B05EC
:1027F00000D4B6E0002458E0229B0393219B02936F
:1028000003230193A84B00934B465A460799069819
:10281000FFF7D8FB0EE1229B0393219B0293042335
:102820000193A24B00934B465A4607990698FFF72F
:10283000C9FBFFE00423229A1A4022990B4210D0D0
:102840009B4B002A0FD004222299039121990291D7
:10285000019200934B465A4607990698FFF7B2FB40
:10286000E8E0944BEDE70322EEE7229B0493219BE3
:10287000039302971E9B1F9C009301944B465A465C
:1028800007990698FFF762FDD4E01E9A1F9B00206F
:102890000021FEF7D6FE1E901F9101239846A5E762
:1028A0000CAB30221A55013F01341F2C01D8092FDF
:1028B000F6D81E981F99FEF77BFF0500FEF760FF14
:1028C00002000B001E981F99FEF7BBFE7A4BFA0020
:1028D0009B181A685B680A920B93FEF7E2FE089059
:1028E0000991FEF789FF0600FEF746FF02000B0084
:1028F00008980999FEF7A5FE0890099100226F4BF0
:10290000FEF728FF00282ED001363000FEF734FFF6
:1029100002000B000A980B99FEF70CFF002801D06B
:1029200001350026002F2CD12800FEF729FF0200D8
:102930000B001E981F99FEF784FE06000F00002270
:102940005E4BFEF7F1FE002846D100225B4B3000C3
:102950003900FEF7FFFE00283ED1EB073CD50135DC
:102960003AE0062746E70022544B08980999FEF7FB
:10297000DBFE0028D6D1002E01D0F307D2D50136D8
:10298000D0E7AA461F2C11D8013F0A213000FEF7DC
:102990001DFC651C30310CAB19550A213000FEF7C7
:1029A00015FC092E0ED906002C00EBE755461F2C0E
:1029B0000CD87B1E002F09D00CAA302111551F0006
:1029C0000134F4E72B0055461C00F0E71F2C03D818
:1029D0000CAB2E221A5501341F2C10D80A212800C6
:1029E000FEF7CCFB661C30310CAB19550A212800D0
:1029F000FEF7C4FB051E01D03400EDE734000323CD
:102A0000229A1340012B1CD01F2C06D84346002BC2
:102A100032D00CAB2D221A550134229B0393219BFB
:102A2000029301940CAB00934B465A4607990698C3
:102A3000FFF7C8FA15B0F0BCBB46B246A946A0469F
:102A4000F0BD219B002B13D04346002B02D10C3349
:102A500013420FD0219B013B2193190003E00CABE3
:102A600030221A5501348C42CED21F2CF7D9CBE735
:102A70002199F8E72199F6E7229B5B0704D50CAB77
:102A80002B221A550134C8E7229B1B07C5D50CAB76
:102A900020221A550134C0E7FFFFEFFFFFFFEF7F51
:102AA00065CDCD4165CDCDC10C3A0010103A001076
:102AB000003A0010083A0010003D00100000E03F0E
:102AC000F0B5DE4657464E464546E0B593B08246E1
:102AD000884693461193002900D10DE30025564600
:102AE000119B1878002800D109E3252809D06C1C17
:102AF0005B462A004146B047119B013311932500E4
:102B0000EEE701331193002720E001231F43013238
:102B10001192012418E002231F4301321192012473
:102B200012E004231F430132119201240CE0082318
:102B30001F4301321192012406E010231F4301328A
:102B40001192012400E00024002C09D0119A13787E
:102B5000203BD9B21029F6D88B00C849CB589F46E4
:102B6000119B1A781300303BDBB2092B10D92A2AAB
:102B700013D00B94119B1A782E2A1ED0119A137819
:102B8000683BD9B2122959D88B00BD49CB589F4612
:102B900011A8FFF705FA0B90ECE71C9B1A1D1C927D
:102BA0001B68002B04DB0B93119B01331193E1E7AE
:102BB000022217435B420B93F6E78022D2001743B1
:102BC0005A1C11925A781300303BDBB2092B0BD9F7
:102BD0002A2AD3D11C9B1A1D1C921C68002C08DBCE
:102BE000119B01331193C9E711A8FFF7D9F904002C
:102BF000C4E70024F4E780235B003B43511C1191A0
:102C000051786C2901D01F0018E0C0239B001F439E
:102C10000232119212E080233B43511C11915178F2
:102C2000682901D01F0009E0C0231F43023211921E
:102C300004E080235B001F4301321192119B18783E
:102C4000672818D8252800D24CE20300253BDAB2C9
:102C5000422A00D946E293008A4AD3589F468023ED
:102C60009B001F4301321192E8E780235B001F4362
:102C700001321192E2E7782800D933E2692800D2C4
:102C800030E20200693AD2B2012393407E4A1342F5
:102C900011D11A0600D500E25B0500D422E21C9B8C
:102CA0001A1D1C921B689A46002C00D0B2E101222A
:102CB000524253468EE16F280ED006D858283DD098
:102CC000622804D102239C4608E0782839D01023DA
:102CD0009F43063B9C4601E008239C46582833D07E
:102CE000692803D0642801D00C2297437A0501D5C6
:102CF0000122974369282AD0642828D0BA0500D534
:102D00009FE0FA0500D5C1E07A0600D4D3E01C9A12
:102D1000111D1C911168FF220A4005970B9B04931B
:102D20000394634602930023019300925B462A00BA
:102D300041463000FFF725FA050027E010239C46A6
:102D4000CCE710239C46C9E720221743C8E7BA0501
:102D500020D4FA0550D47A0666D51C9A111D1C9110
:102D60001168FF220A40D0171118414005970B9BAC
:102D70000493039463460293D20F019200915B4641
:102D80002A0041463000FFF7FCF90500119B013392
:102D90001193A5E61C9A073207218A4311000831D6
:102DA0001C91116853689946DB170C930D930C9A8C
:102DB0000D9B100048400E904A4653400F930E98CA
:102DC0000F990C9A0D9B801A99410E900F910897BC
:102DD0000B9B0793069463460493002305934B468D
:102DE000DA0F0292009001915B462A0041463000C2
:102DF000FFF725FA0500C9E71C9A111D1C911268FE
:102E0000D0171118414005970B9B04930394634618
:102E10000293D20F019200915B462A004146300096
:102E2000FFF7AFF90500B1E73A0605D51C9A111D69
:102E30001C910023D25E96E71C9A111D1C9112680A
:102E400091E71C9A073207218A43110008311C912F
:102E500008970B9B079306946346049300230593FE
:102E6000029353681268009201935B462A00414620
:102E70003000FFF7E4F9050088E7C046643B001026
:102E8000A83B0010F43B0010419000001C9A111D5B
:102E90001C9105970B9B04930394634602930023B4
:102EA0000193136800935B462A0041463000FFF708
:102EB00068F905006AE73A0606D51C9A111D1C91AF
:102EC00012681204120C28E71C9A111D1C9112683A
:102ED00023E7462819D01C9B0733072293431A0087
:102EE00008321C9204970B9A039202941A685B684A
:102EF000009201935B462A0041463000FFF736FC02
:102F00000500119B01331193EAE520231F43E2E7FB
:102F1000672801D0472802D180231B011F43452881
:102F200001D0472801D120231F431C9B07330722D0
:102F300093431A0008321C9204970B9A039202944E
:102F40001A685B68009201935B462A004146300094
:102F5000FFF7FCF90500119B01331193C0E5022333
:102F60001A003A4091463B421DD001241C9B1A1D79
:102F70001C926F1C18785B462A004146B0474B46AE
:102F8000002B14D1119B013311933D00A8E5571C70
:102F90005B4641462020B04723003A005C1C9D421E
:102FA000F5D81500E2E701232A000B9DF6E73A0069
:102FB000B1460B9E06E0571C5B4641462020C847A1
:102FC0002C003A00651CA642F5D817004E46D9E7FA
:102FD00001330A001978002902D0511E002AF7D1C6
:102FE00052469B1A8022D20039001140894617426E
:102FF00002D0A34200D923000222110039401091CF
:103000003A4209D02A00250057469A4633004E46D8
:10301000994621E022004CE62A004546A04606E0FB
:10302000541C5B4629002020B0473B0022005F1C57
:103030000B999942F4D84446A8463B0025005746D0
:103040009A4633004E46994606E01D000137541C4F
:103050005B464146C84722003878002804D0002E3D
:10306000F4D06B1E002DF0D1150053464E46109A39
:10307000002A03D1119B0133119331E50B9F2A00E4
:1030800006E0551C5B4641462020B04723002A003D
:103090005C1C9F42F5D81500ECE721233B431C9AAA
:1030A000111D1C911268059308230493039408339F
:1030B00002930023019300925B462A0041463000B0
:1030C000FFF75FF80500119B0133119308E56C1CB5
:1030D0005B462A0041462520B047119B01331193DE
:1030E0002500FDE46C1C5B462A004146B047119B5D
:1030F000013311932500F3E40A4B9A46EEE4B246FD
:103100005D450DD35B465A1E5B4641460020D047C5
:10311000280013B0F0BCBB46B246A946A046F0BD9D
:103120002A00F1E7911F001000B585B002900391CD
:1031300001210448009313004A4202A9FFF7C0FC92
:1031400005B000BD931F001000BEFDE710B5FFF7EE
:10315000FBFF000030B583B00D001900002A0BD032
:10316000074B084C019200932B000200200000F056
:1031700045F90120FFF7E8FF034B1A00F1E7C046CD
:10318000183A0010283A0010243A001010B5EFF356
:103190000583002B00D000BEFDF700FF034C01E0CB
:1031A00008CC9847024B9C42FAD310BDBC350010A6
:1031B000C435001010B50300080011001B689847C3
:1031C00010BD0000F8B507000D001600437D002B70
:1031D00002D0002400200CE003681100280098476A
:1031E0002DE03B7D10E03B68154802219847601CAC
:1031F0000134B44214DA002CF3DD2B19013B1B78A7
:103200000D3B5A425341DBB22A5D0A2AF0D1002B12
:10321000EED1A042E7DA3B68211A28189847E2E786
:10322000B04203DA3B68311A28189847002E06DDB1
:10323000AD19013D2B780D3B5A4253413B75F8BD0A
:10324000503D001070B505000368002B16D00C4BE4
:103250001C6805E0290004C92000FFF7B3FF2469BA
:10326000002C09D02368002BF9D0064B1B68002BDB
:10327000F0D0A342F3D1EDE700232B6070BDC04630
:10328000F4050020F805002070B505000C000B685F
:10329000802B05D023685A1C2260E418257170BD6C
:1032A0000800FFF7CFFFF5E710B5FDF7FFFC074A71
:1032B000002312184B41002B03DB054800F058F99E
:1032C00010BD01225242034BF7E7C04640420F00B7
:1032D00090020020FFFFFF7F10B5024800F030F998
:1032E00010BDC04690020020F0B5CE46474680B5DE
:1032F00083B006000D0090461C00FFF7D5FF814605
:103300006B1C05D0002C08D0184F194B1C6807E027
:10331000300000F087F80500F4E7164FF5E7246960
:10332000002C17D02368002BF9D0134B1B68002BFF
:1033300001D0A342F3D12A0031002000B847434610
:10334000002BECD06B46D91D0A230B700122200004
:10335000B847E4E74B46002B05D1280003B0C0BCBA
:10336000B946B046F0BDFFF7B7FFF6E7C53100102C
:10337000F4050020B5310010F805002010B5064B0B
:103380001C6801E098472469002C03D06368002B77
:10339000F8D1F8E710BDC046F405002070B505006F
:1033A00000F040F804000123012201002800FFF78B
:1033B0009BFFFFF7E3FF200070BD000070B5A2B0D7
:1033C00004000E00FFF770FF0500002301930A4878
:1033D0003300220001A9FFF7A7FE040001A8FFF7B0
:1033E00031FFFFF7CBFF002D02D1200022B070BDCE
:1033F000FFF772FFF9E7C046893200100FB400B53D
:1034000083B004A901C90191FFF7D8FF03B008BC3C
:1034100004B0184710B5010000230022002000F07E
:1034200043F810BD10B583070AD00300032102E062
:1034300001330B4205D01A78002AF9D1181A10BDB1
:10344000030019680C4A0D4C8A188A4322420FD196
:103450005968094A04338A188A43224208D15968B4
:10346000054A04338A188A432242F1D000E001332E
:103470001A78002AFBD1E1E7FFFEFEFE8080808003
:1034800070B5074C074D641BA41005D0013CA30088
:10349000EB589847002CF9D100F04EF870BDC046AB
:1034A000C4350010C4350010F0B5C6461A4C00B53E
:1034B0002568002D2AD06C681F2C2ADC002808D132
:1034C0000020631C0234A4006B60615180BCB846CC
:1034D000F0BD8827A600AE19F2510137FF37BC4670
:1034E0000122AC446746A2403F68904617436246BB
:1034F000176084277F00F3510228E1D1280042465B
:103500008D30FF30036813430360D9E7034D256016
:10351000D1E701204042D9E7C4050020340400204F
:10352000034B10B5002B02D00248FFF773FF10BD0C
:103530000000000081340010F8B5C0460000000013
:1035400001B40248844601BC604700BFCD010020A1
:1035500001B40248844601BC604700BF1902002044
:1035600001B40248844601BC604700BF1902002034
:1035700001B40248844601BC604700BF99010020A5
:10358000AD0F0010D90F00106D110010751F001045
:1035900011180010451E0010A1100010F50F0010AA
:1035A0001510001029100010250500103110001012
:1035B000510C0010990F00102D040010213500103F
:0435C000FD020010F8
:1035C8000A2A2A2A2050414E4943202A2A2A0A0038
:1035D8000A00000030783163203D3D20282A696EBA
:1035E8007374293E3E313175000000002F686F6DFD
:1035F800652F616C652F7069636F2D73646B2F7312
:1036080072632F7270325F636F6D6D6F6E2F6861BA
:103618007264776172655F6972712F6972712E6366
:103628000000000063757272656E74203D3D205F76
:103638005F756E68616E646C65645F757365725FF3
:10364800697271207C7C2063757272656E74203D8E
:103658003D2068616E646C657200000031203D3D5C
:10366800202875696E747074725F74296C2D3E73AE
:1036780070696E5F6C6F636B000000002F686F6D80
:10368800652F616C652F7069636F2D73646B2F7381
:1036980072632F636F6D6D6F6E2F7069636F5F73E9
:1036A800796E632F6D757465782E6300746F74611D
:1036B8006C0000006D74782D3E636F72652E737018
:1036C800696E5F6C6F636B006C6F636B5F69735FD0
:1036D8006F776E65725F69645F76616C6964286D87
:1036E80074782D3E6F776E65722900006D74782DA1
:1036F8003E656E7465725F636F756E7400000000DE
:10370800706F6F6C2D3E74696D65725F616C61726C
:103718006D5F6E756D203D3D2074696D65725F61EA
:103728006C61726D5F6E756D000000002F686F6DC3
:10373800652F616C652F7069636F2D73646B2F73D0
:1037480072632F636F6D6D6F6E2F7069636F5F7437
:10375800696D652F74696D652E6300006465666127
:10376800756C745F616C61726D5F706F6F6C5F69AF
:103778006E697469616C697A6564282900000000C3
:10378800486172647761726520616C61726D202591
:103798006420616C726561647920636C61696D6530
:1037A8006400000076636F5F66726571203E3D209D
:1037B8005049434F5F504C4C5F56434F5F4D494E05
:1037C8005F465245515F485A2026262076636F5F30
:1037D80066726571203C3D205049434F5F504C4C08
:1037E8005F56434F5F4D41585F465245515F485AB7
:1037F800000000002F686F6D652F616C652F706980
:10380800636F2D73646B2F7372632F7270325F63F3
:103818006F6D6D6F6E2F68617264776172655F702E
:103828006C6C2F706C6C2E6300000000666264691B
:1038380076203E3D20313620262620666264697651
:10384800203C3D203332300028706F73745F646908
:103858007631203E3D203120262620706F73745F1C
:1038680064697631203C3D2037292026262028709F
:103878006F73745F64697632203E3D2031202626BE
:1038880020706F73745F64697632203C3D2037295D
:10389800000000007265665F66726571203C3D201D
:1038A8002876636F5F66726571202F203136290094
:1038B8002A282875696E74385F74202A29282828D0
:1038C800766F6964202A29726F6D5F7461626C6516
:1038D8005F666C6F6174292D322929202A203420D3
:1038E8003E3D2053465F5441424C455F56325F533C
:1038F800495A45002F686F6D652F616C652F706997
:10390800636F2D73646B2F7372632F7270325F63F2
:103918006F6D6D6F6E2F7069636F5F646F75626C2A
:10392800652F646F75626C655F696E69745F726F2D
:103938006D5F7270323034302E6300002A2828758B
:10394800696E74385F74202A29726F6D5F746162C2
:103958006C652D3229202A2034203E3D2053465FB5
:103968005441424C455F56325F53495A4500000066
:103978002F686F6D652F616C652F7069636F2D738C
:10398800646B2F7372632F7270325F636F6D6D6F2C
:103998006E2F7069636F5F666C6F61742F666C6FF2
:1039A80061745F696E69745F726F6D5F72703230D7
:1039B80034302E6300000000446562756700000023
:1039C800626F6F74325F77323571303830000000C3
:1039D800322E322E300000007069636F0000000044
:1039E80068656C6C6F5F61736D00000041707220D8
:1039F8002034203230323600666E692B0000000019
:103A0800666E69006E616E00666E692D00000000CA
:103A18002C2066756E6374696F6E3A200000000092
:103A2800617373657274696F6E2022257322206634
:103A380061696C65643A2066696C65202225732289
:103A48002C206C696E65202564257325730A000097
:103A58006972715F7365745F6578636C7573697695
:103A6800655F68616E646C65720000006D757465F1
:103A7800785F6578697400006D757465785F656E48
:103A88007465725F626C6F636B5F756E74696C00EE
:103A980072756E74696D655F696E69745F6D757452
:103AA80065780000616C61726D5F706F6F6C5F6745
:103AB80065745F64656661756C740000616C617241
:103AC8006D5F706F6F6C5F6972715F68616E646C57
:103AD80065720000706C6C5F696E697400000000AC
:103AE8005F5F61656162695F646F75626C655F697C
:103AF8006E6974005F5F61656162695F666C6F61C2
:103B0800745F696E6974000006005250D3F0754204
:103B1800C039001006005250E182887FC839001071
:103B280006005250ABB36053D8390010060052500B
:103B3800BBFF3CB6E039001006005250861C030259
:103B4800E8390010060052505422A29DF4390010A2
:103B580005005250DE65F468483F00102E2B001017
:103B6800462B0010462B00103A2B0010462B001055
:103B7800462B0010462B0010462B0010462B001039
:103B8800462B0010462B0010222B0010462B00104D
:103B9800162B0010462B0010462B00100A2B001085
:103BA800162C00103C2C00105E2C00103C2C001031
:103BB800F62B00103C2C00103C2C00103C2C001064
:103BC8003C2C00103C2C00103C2C00103C2C00100D
:103BD800322C00103C2C00103C2C00103C2C001007
:103BE8003C2C00103C2C00106A2C0010CE30001029
:103BF800E4300010E4300010E4300010E43000102D
:103C0800E4300010E4300010E4300010E43000101C
:103C1800E4300010E4300010E4300010E43000100C
:103C2800E4300010E4300010E4300010E4300010FC
:103C3800E4300010E4300010E4300010E4300010EC
:103C4800E4300010E4300010E4300010E4300010DC
:103C5800E4300010E4300010E4300010E4300010CC
:103C6800E4300010E4300010E4300010102F001091
:103C7800D22E0010102F0010E4300010E430001095
:103C8800E4300010E4300010E4300010E43000109C
:103C9800E4300010E4300010E4300010E43000108C
:103CA800E4300010E4300010E4300010E43000107C
:103CB800E4300010E4300010B62C0010E43000109E
:103CC800E4300010E4300010E4300010E43000105C
:103CD800E4300010E4300010E4300010E43000104C
:103CE800B62C00105E2F0010B62C0010102F0010FC
:103CF800D22E0010102F0010000000000000F03F2E
:103D080000000000000024400000000000005940AE
:103D18000000000000408F40000000000088C34001
:103D280000000000006AF8400000000080842E4176
:103D380000000000D01263410000000084D79741C2
:0C3D48000000000065CDCD410D0A000018
:103D5400103B00101C3B0010283B0010343B0010AB
:0C3D6400403B00104C3B0010583B00108E
:103D700010B503000468EFF3108272B620680028C3
:103D8000FCD0BFF35F8F0420185600280BDB0029FE
:103D900010D0086000201B68BFF35F8F00211960FE
:103DA00082F3108810BDD0210906097849B2197133
:103DB0000120F0E70020EEE7F0B5D6464F46464634
:103DC000C0B50500904699460368002B20D0D0234B
:103DD0001B061B785BB29A462F68EFF3108472B60D
:103DE0003E68002EFCD0BFF35F8F0423EB56002B00
:103DF00014DB2B68BFF35F8F00221A6084F31088F6
:103E00004046494600F06CF80028E5D000200FE05D
:103E10000A4B0B4A0B48A62100F05AF853462B7167
:103E20002B68BFF35F8F00221A6084F31088012093
:103E3000E0BCBA46B146A846F0BDC046BC3600104C
:103E4000803A00108436001070B582B0060015006C
:103E50001C0001A9FFF78CFF002807D1019B5BB272
:103E6000D0221206127852B2934201D102B070BD34
:103E70002A0023003000FFF79FFFF7E710B5016825
:103E8000EFF3108372B60A68002AFCD0BFF35F8F8D
:103E900004228256002A0ADBFF2202710268BFF365
:103EA0005F8F0021116083F3108840BF10BD034B6A
:103EB000034A0448D52100F00BF8C046D036001064
:103EC000743A0010843600107047C04600000000AD
:103ED00001B40248844601BC604700BF5531001060
:103EE00001B40248844601BC604700BF1D0B0010AE
:103EF00048656C6C6F20576F726C642025640A00F3
:103F000010000000000000000000000000000000A1
:103F100000000000000000009802002000000000E7
:103F2000503300004C330000543300005233000083
:103F30004D5300004D430000533400004334000053
:083F4000000000000000000079
:04000005100001E9FD
:00000001FF
